:100000000C9434000C9451000C9451000C94510049
:100010000C9451000C9451000C9451000C9451001C
:100020000C9451000C9451000C9451000C9451000C
:100030000C9451000C9451000C9451000C945100FC
:100040000C9451000C9451000C942F020C9451000C
:100050000C9451000C9451000C9451000C945100DC
:100060000C9451000C94510011241FBECFEFD8E026
:10007000DEBFCDBF11E0A0E0B1E0E0E3FDE002C0F3
:1000800005900D92A63CB107D9F721E0A6ECB1E0AE
:1000900001C01D92A63EB207E1F70E948F020C94A8
:1000A00096060C940000CF93DF93CDB7DEB78CE7B4
:1000B00090E02CE730E0F90120812064FC012083EE
:1000C0008AE790E020E2FC0120838AE790E027E8BD
:1000D000FC0120830000DF91CF910895CF93DF933F
:1000E00000D01F92CDB7DEB78B838EE790E02EE76E
:1000F00030E0F9012081622F2B81422F50E021E076
:1001000030E002C0220F331F4A95E2F7262BFC0194
:10011000208388E290E028E230E0F9012081622F1C
:100120002B81422F50E021E030E002C0220F331F2C
:100130004A95E2F720952623FC01208387E290E090
:1001400027E230E0F9012081622F2B81422F50E01D
:1001500021E030E002C0220F331F4A95E2F72095DC
:100160002623FC0120838CE790E02CE730E0F901A6
:100170002081322F307F2B81232BFC0120838AE7C3
:1001800090E02AE730E0F90120812064FC0120831F
:1001900000008AE790E0FC018081882F90E0807168
:1001A0009927892BB1F38EE790E02EE730E0F90133
:1001B0002081622F2B81422F50E021E030E002C0ED
:1001C000220F331F4A95E2F720952623FC01208356
:1001D00088E790E0FC01808191819A8389838B81FB
:1001E000882F90E02A812F9329812F93292F2F93F5
:1001F0008F938EE091E0892F8F938EE091E08F9323
:100200000E9488030F900F900F900F900F900F9007
:1002100089819A810F900F900F90DF91CF9108956F
:10022000CF93DF9300D01F92CDB7DEB79B838A8335
:100230008A819B810C96FC0180818A3278F08A81C8
:100240009B810C96FC0180818A3340F48A819B81DA
:100250000C96FC018081805389831DC08A819B811B
:100260000C96FC018081813478F08A819B810C9608
:10027000FC018081873440F48A819B810C96FC01CB
:1002800080818753898307C088E191E00E949E03A3
:100290008FEF9FEF03C089810E946E000F900F9037
:1002A0000F90DF91CF910895CF93DF93FC012385C9
:1002B00020533285333451F0343409F441C03234A0
:1002C000C1F183E891E00E949E0329C0C6E2D0E01C
:1002D000E8E2F0E0A7E2B0E0283008F510821C92D6
:1002E000888190E0022E02C0959587950A94E2F7E6
:1002F000C82FC1701F92CF931F922F931F923F93CD
:1003000083EA91E09F938F930E9488038DB79EB7F5
:1003100008960FB6F8949EBF0FBE8DBF05C08DEA3C
:1003200091E00E949E03C0E08C2F8170DF91CF91FD
:100330000895C3E2D0E0A4E2B0E0E5E2F0E0CCCF83
:10034000C9E2D0E0AAE2B0E0EBE2F0E0C5CF43348E
:10035000B1F1443431F0423449F083E891E00C9437
:100360009E03AAE2B0E0EBE2F0E004C0E5E2F0E0D8
:10037000A4E2B0E04081882351F081E090E0062EB5
:1003800001C0880F0A94EAF7842B80830EC021E015
:1003900030E0062E02C0220F331F0A94E2F791E0EC
:1003A000232B09F090E09423908381E090E001C03A
:1003B000880F6A95EAF79C91892B8C930895A7E2A0
:1003C000B0E0E8E2F0E0D6CFFC01638560534285FF
:1003D00081E00C94A701FC0162856053418580E0B7
:1003E0000C94A7019091C00095FFFCCF8093C600AC
:1003F00080E090E008959C0140E050E060E472E409
:100400008FE090E00E94190321503109519A599AC6
:10041000589A3093C5002093C400E1ECF0E088E1E5
:10042000808386E08093C20080818068808380E042
:1004300091E09093E3018093E2010895E091C60179
:10044000F0E0E853FE4F80838091C60190E0019672
:1004500068E170E00E9405038093C60108951F9231
:100460000F920FB60F9211242F933F934F935F93E8
:100470006F937F938F939F93AF93BF93EF93FF936C
:100480008091C6000E941E02FF91EF91BF91AF9133
:100490009F918F917F916F915F914F913F912F919C
:1004A0000F900FBE0F901F901895E091C701F0E0DC
:1004B000E853FE4F20818091C70190E0019668E1EA
:1004C00070E00E9405038093C701822F08959091E8
:1004D000C6018091C701981728F08091C6019091BC
:1004E000C70105C08091C6019091C701885E891B34
:1004F00008959091C6018091C701981771F080917D
:10050000C601882321F0E091C601E15001C0E7E176
:10051000F0E0E853FE4F8081089580E008950F9346
:100520001F93CF93DF93CDB7DEB7AA970FB6F8949A
:10053000DEBF0FBECDBF80E1E3E7F1E0DE01139641
:1005400001900D928A95E1F70E94530080E096E9B0
:100550000E94FB01789484E08A830E9479028A30A9
:10056000E1F719820FC08981082F10E00E9455021F
:10057000282FCE014396800F911FFC012083898193
:100580008F5F89830E946702882369F719822FC0D1
:100590008981882F90E0880F991F880F991F9E01ED
:1005A0002F5F3F4F820F931F0296FC012081318104
:1005B000CE014396B9010E946E03892BA9F089816F
:1005C000882F90E0880F991F880F991F9E012F5F39
:1005D0003F4F820F931F0496FC0120813181CE0191
:1005E0004396F901099507C089818F5F89839981B5
:1005F0008A81981768F299818A81981709F0ADCF9E
:1006000084E391E00E949E03A8CF97FB072E16F487
:10061000009407D077FD09D00E94380307FC05D06D
:100620003EF4909581959F4F0895709561957F4F09
:100630000895052E97FB1EF400940E94300357FD89
:1006400007D00E944C0307FC03D04EF40C943003F7
:1006500050954095309521953F4F4F4F5F4F0895EE
:1006600090958095709561957F4F8F4F9F4F08951E
:10067000AA1BBB1B51E107C0AA1FBB1FA617B707C8
:1006800010F0A61BB70B881F991F5A95A9F78095E4
:100690009095BC01CD010895A1E21A2EAA1BBB1BA7
:1006A000FD010DC0AA1FBB1FEE1FFF1FA217B3073E
:1006B000E407F50720F0A21BB30BE40BF50B661F54
:1006C000771F881F991F1A9469F760957095809518
:1006D00090959B01AC01BD01CF010895FB015191A3
:1006E0005523A9F0BF01DC014D9145174111E1F7F8
:1006F00059F4CD010190002049F04D914015411170
:10070000C9F3FB014111EFCF81E090E0019708951B
:10071000A0E0B0E0EEE8F3E00C946F06AE014B5FB2
:100720005F4FFA0161917191AF018091E201909167
:10073000E3010E94CE03E2E00C948B060F931F931B
:10074000CF93DF93E091E201F091E301238121FF58
:100750001BC08C01D0E0C0E0F80181918F01609155
:10076000E2017091E301DB011896ED91FC9119977C
:10077000882331F00995892B79F3DFEFCFEFECCFA8
:100780008AE00995892B19F08FEF9FEF02C08D2F1A
:100790009C2FDF91CF911F910F910895ABE0B0E0B6
:1007A000E4EDF3E00C945F066C017B018A01FC012F
:1007B00017821682838181FFCCC1CE0101963C0154
:1007C000F6019381F70193FD859193FF81917F015C
:1007D000882309F4BAC1853239F493FD859193FFDA
:1007E00081917F01853229F4B60190E00E94C50510
:1007F000E7CF912C212C312CFFE1F315D8F08B326F
:1008000079F038F4803279F08332A1F4232D20611D
:100810001DC08D3261F0803369F4232D216016C034
:10082000832D8260382EE32DE4603E2E2AC0F32D06
:10083000F8601DC037FC2DC020ED280F2A3040F095
:100840008E32B9F436FC81C1232D2064322E19C0BA
:1008500036FE06C08AE0989E200D1124922E11C00B
:10086000EAE02E9E200D1124222EF32DF0623F2E61
:1008700008C08C3621F4832D8068382E02C088365B
:1008800041F4F70193FD859193FF81917F018111DF
:10089000B3CF982F9F7D9554933028F40C5F1F4F52
:1008A0009FE399830DC0833631F0833771F0833530
:1008B00009F059C021C0F801808189830E5F1F4F64
:1008C00088248394912C530113C02801F2E04F0E29
:1008D000511CF801A080B18036FE03C0692D70E084
:1008E00002C06FEF7FEFC5010E94BA054C01820183
:1008F000F32DFF773F2E16C0280122E0420E511C37
:10090000F801A080B18036FE03C0692D70E002C0FE
:100910006FEF7FEFC5010E94AF054C01F32DF0682A
:100920003F2E820133FC1BC0822D90E08816990671
:10093000B0F4B60180E290E00E94C5052A94F4CF9D
:10094000F50137FC859137FE81915F01B60190E09A
:100950000E94C50521102A9421E0821A9108811471
:10096000910471F7E8C0843611F0893641F5F80139
:1009700037FE07C060817181828193810C5F1F4FB8
:1009800008C060817181072E000C880B990B0E5FE7
:100990001F4FF32DFF763F2E97FF09C0909580954E
:1009A000709561957F4F8F4F9F4FF0683F2E2AE0E3
:1009B00030E0A3010E940106882E861845C08537C5
:1009C00031F4232D2F7EB22E2AE030E025C0932D66
:1009D000997FB92E8F36C1F018F4883579F0B5C0FB
:1009E000803719F0883721F0B0C0E92FE061BE2EC2
:1009F000B4FE0DC0FB2DF460BF2E09C034FE0AC04A
:100A0000292F2660B22E06C028E030E005C020E184
:100A100030E002C020E132E0F801B7FE07C060819B
:100A20007181828193810C5F1F4F06C0608171814B
:100A300080E090E00E5F1F4FA3010E940106882E08
:100A40008618FB2DFF773F2E36FE0DC0232D2E7FFF
:100A5000A22E891458F434FE0BC032FC09C0832D39
:100A60008E7EA82E05C0B82CA32C03C0B82C01C0C4
:100A7000B92CA4FE0FC0FE01E80DF11D808180336A
:100A800021F49A2D997EA92E09C0A2FE06C0B39426
:100A9000B39404C08A2D867809F0B394A3FC11C0E6
:100AA000A0FE06C0B21488F4280C922C9B180EC02D
:100AB000B21460F4B60180E290E00E94C505B394E0
:100AC000F7CFB21418F42B1802C0982C212CA4FED6
:100AD00010C0B60180E390E00E94C505A2FE17C0D9
:100AE000A1FC03C088E790E002C088E590E0B60171
:100AF0000CC08A2D867859F0A1FE02C08BE201C09D
:100B000080E2A7FC8DE2B60190E00E94C505891441
:100B100038F4B60180E390E00E94C5059A94F7CFBF
:100B20008A94F301E80DF11D8081B60190E00E94E6
:100B3000C5058110F5CF222009F442CEB60180E22E
:100B400090E00E94C5052A94F6CFF6018681978130
:100B500002C08FEF9FEF2B96E2E10C947B06FC0125
:100B60000590615070400110D8F7809590958E0FD8
:100B70009F1F0895FC016150704001900110D8F74B
:100B8000809590958E0F9F1F08950F931F93CF937D
:100B9000DF93FB01238121FD03C08FEF9FEF2CC06A
:100BA00022FF16C0468157812481358142175307A1
:100BB00044F4A081B1819D012F5F3F4F3183208399
:100BC0008C93268137812F5F3F4F3783268314C054
:100BD0008B01EC01FB010084F185E02D0995892B47
:100BE000E1F6D80116968D919C911797019617966C
:100BF0009C938E931697CE01DF91CF911F910F9109
:100C00000895FA01AA27283051F1203181F1E894A2
:100C10006F936E7F6E5F7F4F8F4F9F4FAF4FB1E0EF
:100C20003ED0B4E03CD0670F781F891F9A1FA11DEA
:100C3000680F791F8A1F911DA11D6A0F711D811DEB
:100C4000911DA11D20D009F468943F912AE0269FB0
:100C500011243019305D3193DEF6CF010895462F0F
:100C60004770405D4193B3E00FD0C9F7F6CF462FF0
:100C70004F70405D4A3318F0495D31FD4052419359
:100C800002D0A9F7EACFB4E0A69597958795779516
:100C90006795BA95C9F700976105710508959B019D
:100CA000AC010A2E06945795479537952795BA9526
:100CB000C9F7620F731F841F951FA01D08952F92FF
:100CC0003F924F925F926F927F928F929F92AF92DC
:100CD000BF92CF92DF92EF92FF920F931F93CF9329
:100CE000DF93CDB7DEB7CA1BDB0B0FB6F894DEBFC0
:100CF0000FBECDBF09942A88398848885F846E84E6
:100D00007D848C849B84AA84B984C884DF80EE802F
:100D1000FD800C811B81AA81B981CE0FD11D0FB638
:100D2000F894DEBF0FBECDBFED010895F894FFCF5C
:100D30000000000200000000F20100000000414439
:100D40004325753D25750A004552524F523A2049B8
:100D50006E76616C696420414443206368616E6E05
:100D6000656C21004552524F523A20556E73757092
:100D7000706F7274656420636F6D6D616E642100C5
:100D800064696F5F686967680064696F5F6C6F773B
:100D90000064696F5F726561640061696F5F7265AD
:100DA0006164005001E4015901EB01610154016AE1
:100DB0000110014552524F523A2057726F6E672010
:100DC00064696F20706F72742073656C65637465FD
:100DD00064210050256325753D25750A0045525252
:100DE0004F523A2057726F6E672070696E206E7591
:060DF0006D626572210036
:00000001FF
